{
  "contractName": "Factory",
  "abi": [
    {
      "anonymous": false,
      "inputs": [
        {
          "indexed": false,
          "internalType": "address",
          "name": "_electionAddress",
          "type": "address"
        }
      ],
      "name": "GetELectionAddress",
      "type": "event"
    },
    {
      "constant": false,
      "inputs": [],
      "name": "createElection",
      "outputs": [
        {
          "internalType": "address",
          "name": "",
          "type": "address"
        }
      ],
      "payable": false,
      "stateMutability": "nonpayable",
      "type": "function"
    }
  ],
  "bytecode": "0x608060405234801561001057600080fd5b5061154e806100206000396000f3fe608060405234801561001057600080fd5b506004361061002b5760003560e01c806324c2286c14610030575b600080fd5b61003861007a565b604051808273ffffffffffffffffffffffffffffffffffffffff1673ffffffffffffffffffffffffffffffffffffffff16815260200191505060405180910390f35b600033604051610089906101a2565b808273ffffffffffffffffffffffffffffffffffffffff1673ffffffffffffffffffffffffffffffffffffffff168152602001915050604051809103906000f0801580156100db573d6000803e3d6000fd5b506000806101000a81548173ffffffffffffffffffffffffffffffffffffffff021916908373ffffffffffffffffffffffffffffffffffffffff1602179055507f952dc4e7f9cadc438a3da2ecb5fe3bc65ba40dbf1e086c45d83f32e8b047d32e6000809054906101000a900473ffffffffffffffffffffffffffffffffffffffff16604051808273ffffffffffffffffffffffffffffffffffffffff1673ffffffffffffffffffffffffffffffffffffffff16815260200191505060405180910390a190565b61136a806101b08339019056fe608060405234801561001057600080fd5b5060405161136a38038061136a8339818101604052602081101561003357600080fd5b8101908080519060200190929190505050806000806101000a81548173ffffffffffffffffffffffffffffffffffffffff021916908373ffffffffffffffffffffffffffffffffffffffff1602179055506001600360008060009054906101000a900473ffffffffffffffffffffffffffffffffffffffff1673ffffffffffffffffffffffffffffffffffffffff1673ffffffffffffffffffffffffffffffffffffffff16815260200190815260200160002060006101000a81548160ff0219169083151502179055505061125d8061010d6000396000f3fe608060405234801561001057600080fd5b50600436106100a95760003560e01c80636f861909116100715780636f8619091461024457806371ab809a1461028857806388e1c739146102cc57806395f11ce6146103105780639ab24eb014610354578063f851a440146103ac576100a9565b80630c1b36e9146100ae578063112b6f621461010a578063166a39521461014e57806335a893a11461019257806353358fc414610200575b600080fd5b6100f0600480360360208110156100c457600080fd5b81019080803573ffffffffffffffffffffffffffffffffffffffff1690602001909291905050506103f6565b604051808215151515815260200191505060405180910390f35b61014c6004803603602081101561012057600080fd5b81019080803573ffffffffffffffffffffffffffffffffffffffff169060200190929190505050610416565b005b6101906004803603602081101561016457600080fd5b81019080803573ffffffffffffffffffffffffffffffffffffffff169060200190929190505050610517565b005b6101be600480360360208110156101a857600080fd5b8101908080359060200190929190505050610679565b604051808273ffffffffffffffffffffffffffffffffffffffff1673ffffffffffffffffffffffffffffffffffffffff16815260200191505060405180910390f35b6102426004803603602081101561021657600080fd5b81019080803573ffffffffffffffffffffffffffffffffffffffff1690602001909291905050506106b5565b005b6102866004803603602081101561025a57600080fd5b81019080803573ffffffffffffffffffffffffffffffffffffffff169060200190929190505050610886565b005b6102ca6004803603602081101561029e57600080fd5b81019080803573ffffffffffffffffffffffffffffffffffffffff169060200190929190505050610aa0565b005b61030e600480360360208110156102e257600080fd5b81019080803573ffffffffffffffffffffffffffffffffffffffff169060200190929190505050610ba1565b005b6103526004803603602081101561032657600080fd5b81019080803573ffffffffffffffffffffffffffffffffffffffff169060200190929190505050610d04565b005b6103966004803603602081101561036a57600080fd5b81019080803573ffffffffffffffffffffffffffffffffffffffff169060200190929190505050610fbb565b6040518082815260200191505060405180910390f35b6103b461116f565b604051808273ffffffffffffffffffffffffffffffffffffffff1673ffffffffffffffffffffffffffffffffffffffff16815260200191505060405180910390f35b60016020528060005260406000206000915054906101000a900460ff1681565b3373ffffffffffffffffffffffffffffffffffffffff166000809054906101000a900473ffffffffffffffffffffffffffffffffffffffff1673ffffffffffffffffffffffffffffffffffffffff1614156104bc576040517f08c379a00000000000000000000000000000000000000000000000000000000081526004018080602001828103825260218152602001806111e26021913960400191505060405180910390fd5b6000600360008373ffffffffffffffffffffffffffffffffffffffff1673ffffffffffffffffffffffffffffffffffffffff16815260200190815260200160002060006101000a81548160ff02191690831515021790555050565b600360003373ffffffffffffffffffffffffffffffffffffffff1673ffffffffffffffffffffffffffffffffffffffff16815260200190815260200160002060009054906101000a900460ff166105b9576040517f08c379a00000000000000000000000000000000000000000000000000000000081526004018080602001828103825260218152602001806111c16021913960400191505060405180910390fd5b600760009054906101000a900460ff161561061f576040517f08c379a000000000000000000000000000000000000000000000000000000000815260040180806020018281038252602c815260200180611195602c913960400191505060405180910390fd5b60018060008373ffffffffffffffffffffffffffffffffffffffff1673ffffffffffffffffffffffffffffffffffffffff16815260200190815260200160002060006101000a81548160ff02191690831515021790555050565b6005818154811061068657fe5b906000526020600020016000915054906101000a900473ffffffffffffffffffffffffffffffffffffffff1681565b600760009054906101000a900460ff1661071a576040517f08c379a00000000000000000000000000000000000000000000000000000000081526004018080602001828103825260268152602001806112036026913960400191505060405180910390fd5b600160003373ffffffffffffffffffffffffffffffffffffffff1673ffffffffffffffffffffffffffffffffffffffff16815260200190815260200160002060009054906101000a900460ff166107d9576040517f08c379a000000000000000000000000000000000000000000000000000000000815260040180806020018281038252600d8152602001807f796f752063616e7420766f74650000000000000000000000000000000000000081525060200191505060405180910390fd5b600460008273ffffffffffffffffffffffffffffffffffffffff1673ffffffffffffffffffffffffffffffffffffffff168152602001908152602001600020600101600081548092919060010191905055506001600260003373ffffffffffffffffffffffffffffffffffffffff1673ffffffffffffffffffffffffffffffffffffffff16815260200190815260200160002060006101000a81548160ff02191690831515021790555050565b600360003373ffffffffffffffffffffffffffffffffffffffff1673ffffffffffffffffffffffffffffffffffffffff16815260200190815260200160002060009054906101000a900460ff16610928576040517f08c379a00000000000000000000000000000000000000000000000000000000081526004018080602001828103825260218152602001806111c16021913960400191505060405180910390fd5b600760009054906101000a900460ff161561098e576040517f08c379a000000000000000000000000000000000000000000000000000000000815260040180806020018281038252602c815260200180611195602c913960400191505060405180910390fd5b604051806060016040528060011515815260200160008152602001600654815250600460008373ffffffffffffffffffffffffffffffffffffffff1673ffffffffffffffffffffffffffffffffffffffff16815260200190815260200160002060008201518160000160006101000a81548160ff021916908315150217905550602082015181600101556040820151816002015590505060058190806001815401808255809150509060018203906000526020600020016000909192909190916101000a81548173ffffffffffffffffffffffffffffffffffffffff021916908373ffffffffffffffffffffffffffffffffffffffff1602179055505060066000815480929190600101919050555050565b3373ffffffffffffffffffffffffffffffffffffffff166000809054906101000a900473ffffffffffffffffffffffffffffffffffffffff1673ffffffffffffffffffffffffffffffffffffffff161415610b46576040517f08c379a00000000000000000000000000000000000000000000000000000000081526004018080602001828103825260218152602001806111e26021913960400191505060405180910390fd5b6001600360008373ffffffffffffffffffffffffffffffffffffffff1673ffffffffffffffffffffffffffffffffffffffff16815260200190815260200160002060006101000a81548160ff02191690831515021790555050565b600360003373ffffffffffffffffffffffffffffffffffffffff1673ffffffffffffffffffffffffffffffffffffffff16815260200190815260200160002060009054906101000a900460ff16610c43576040517f08c379a00000000000000000000000000000000000000000000000000000000081526004018080602001828103825260218152602001806111c16021913960400191505060405180910390fd5b600760009054906101000a900460ff1615610ca9576040517f08c379a000000000000000000000000000000000000000000000000000000000815260040180806020018281038252602c815260200180611195602c913960400191505060405180910390fd5b6000600160008373ffffffffffffffffffffffffffffffffffffffff1673ffffffffffffffffffffffffffffffffffffffff16815260200190815260200160002060006101000a81548160ff02191690831515021790555050565b600360003373ffffffffffffffffffffffffffffffffffffffff1673ffffffffffffffffffffffffffffffffffffffff16815260200190815260200160002060009054906101000a900460ff16610da6576040517f08c379a00000000000000000000000000000000000000000000000000000000081526004018080602001828103825260218152602001806111c16021913960400191505060405180910390fd5b600760009054906101000a900460ff1615610e0c576040517f08c379a000000000000000000000000000000000000000000000000000000000815260040180806020018281038252602c815260200180611195602c913960400191505060405180910390fd5b600460008273ffffffffffffffffffffffffffffffffffffffff1673ffffffffffffffffffffffffffffffffffffffff16815260200190815260200160002060000160009054906101000a900460ff16610ece576040517f08c379a00000000000000000000000000000000000000000000000000000000081526004018080602001828103825260178152602001807f63616e64696461746520646f65736e742065786973747300000000000000000081525060200191505060405180910390fd5b6005600460008373ffffffffffffffffffffffffffffffffffffffff1673ffffffffffffffffffffffffffffffffffffffff1681526020019081526020016000206002015481548110610f1d57fe5b9060005260206000200160006101000a81549073ffffffffffffffffffffffffffffffffffffffff02191690556000600460008373ffffffffffffffffffffffffffffffffffffffff1673ffffffffffffffffffffffffffffffffffffffff16815260200190815260200160002060000160006101000a81548160ff0219169083151502179055506006600081548092919060019003919050555050565b60003373ffffffffffffffffffffffffffffffffffffffff166000809054906101000a900473ffffffffffffffffffffffffffffffffffffffff1673ffffffffffffffffffffffffffffffffffffffff161415611063576040517f08c379a00000000000000000000000000000000000000000000000000000000081526004018080602001828103825260218152602001806111e26021913960400191505060405180910390fd5b600460008373ffffffffffffffffffffffffffffffffffffffff1673ffffffffffffffffffffffffffffffffffffffff16815260200190815260200160002060000160009054906101000a900460ff16611125576040517f08c379a00000000000000000000000000000000000000000000000000000000081526004018080602001828103825260168152602001807f63616e64696461746520646f65736e742065786973740000000000000000000081525060200191505060405180910390fd5b600460008373ffffffffffffffffffffffffffffffffffffffff1673ffffffffffffffffffffffffffffffffffffffff168152602001908152602001600020600101549050919050565b6000809054906101000a900473ffffffffffffffffffffffffffffffffffffffff168156fe63616e277420656469742063616e6469646174657320616674657220656c656374696f6e20737461727465644f6e6c792073746166662063616e2063616c6c20746869732066756e6374696f6e4f6e6c792061646d696e2063616e2063616c6c20746869732066756e6374696f6e63616e277420766f7465206265666f72652074686520656c656374696f6e2073746172746564a265627a7a72315820bc2c0987a1e151c3783188ed8b19a1c74040a8dce9c2b84172833bca3e03505564736f6c63430005100032a265627a7a72315820591bad6a8ebf6099fc64a81384849742c397f1f1abefa6d57b359018983f223764736f6c63430005100032",
  "source": "// SPDX-License-Identifier: MIT\npragma solidity >0.5.0 <0.7.1;\n\ncontract Factory {\n    address electionAddress;\n    event GetELectionAddress(address _electionAddress);\n\n    function createElection() public returns (address) {\n        electionAddress = address(new Election(msg.sender));\n        emit GetELectionAddress(electionAddress);\n    }\n}\n\ncontract Election {\n    address public admin;\n    mapping(address => bool) public Voter;\n    mapping(address => bool) private Voted;\n    mapping(address => bool) private Staff;\n    struct Candidate {\n        bool isCandidate;\n        uint256 votes;\n        uint256 id;\n    }\n    mapping(address => Candidate) private Candidates;\n    address[] public candidateArray;\n    uint256 candidateCount;\n    bool started;\n\n    modifier onlyAdmin() {\n        require(admin != msg.sender, \"Only admin can call this function\");\n        _;\n    }\n\n    modifier onlyStaff() {\n        require(Staff[msg.sender], \"Only staff can call this function\");\n        _;\n    }\n\n    modifier beforeStart() {\n        require(!started, \"can't edit candidates after election started\");\n        _;\n    }\n\n    modifier afterStart() {\n        require(started, \"can't vote before the election started\");\n        _;\n    }\n\n    constructor(address _admin) public {\n        admin = _admin;\n        Staff[admin] = true;\n    }\n\n    function createStaff(address _staffAddress) public onlyAdmin {\n        Staff[_staffAddress] = true;\n    }\n\n    function deleteStaff(address _staffAddress) public onlyAdmin {\n        Staff[_staffAddress] = false;\n    }\n\n    function createVoter(address _voterAddress) public onlyStaff beforeStart {\n        Voter[_voterAddress] = true;\n    }\n\n    function deleteVoter(address _voterAddress) public onlyStaff beforeStart {\n        Voter[_voterAddress] = false;\n    }\n\n    function createCandidate(address _candidateAddress)\n        public\n        onlyStaff\n        beforeStart\n    {\n        Candidates[_candidateAddress] = Candidate(true, 0, candidateCount);\n        candidateArray.push(_candidateAddress);\n        candidateCount++;\n    }\n\n    function deleteCandidate(address _candidateAddress)\n        public\n        onlyStaff\n        beforeStart\n    {\n        if (!Candidates[_candidateAddress].isCandidate)\n            revert(\"candidate doesnt exists\");\n        delete candidateArray[Candidates[_candidateAddress].id];\n        Candidates[_candidateAddress].isCandidate = false;\n        candidateCount--;\n    }\n\n    function castVote(address _candidateAddress) public afterStart {\n        if (!Voter[msg.sender]) revert(\"you cant vote\");\n        Candidates[_candidateAddress].votes++;\n        Voted[msg.sender] = true;\n    }\n\n    function getVotes(address _candidateAddress)\n        public\n        view\n        onlyAdmin\n        returns (uint256)\n    {\n        if (!Candidates[_candidateAddress].isCandidate)\n            revert(\"candidate doesnt exist\");\n        return Candidates[_candidateAddress].votes;\n    }\n}\n",
  "sourcePath": "/home/j0/projects/electionhackthon/frontend/contracts/Factory.sol",
  "compiler": {
    "name": "solc",
    "version": "0.5.16+commit.9c3226ce.Emscripten.clang"
  },
  "schemaVersion": "3.2.5",
  "updatedAt": "2020-11-01T09:08:59.891Z",
  "networkType": "ethereum",
  "devdoc": {
    "methods": {}
  },
  "userdoc": {
    "methods": {}
  }
}